:020000040000fa
:080000000002040000000000f2
:020000040000fa
:04000800ce04000022
:020000040000fa
:04000c00ce0400001e
:020000040000fa
:04001000ce0400001a
:020000040000fa
:04001400ce04000016
:020000040000fa
:04001800ce04000012
:020000040000fa
:04001c00ce0400000e
:020000040000fa
:04002000ce0400000a
:020000040000fa
:04002400ce04000006
:020000040000fa
:04002800ce04000002
:020000040000fa
:04002c00ce040000fe
:020000040000fa
:04003000ce040000fa
:020000040000fa
:04003400fe020000c8
:020000040000fa
:04003800ce040000f2
:020000040000fa
:04003c00ce040000ee
:020000040000fa
:04004000ce040000ea
:020000040000fa
:04004400ce040000e6
:020000040000fa
:0400480008030000a9
:020000040000fa
:04004c00ce040000de
:020000040000fa
:04005000ce040000da
:020000040000fa
:04005400ce040000d6
:020000040000fa
:04005800ce040000d2
:020000040000fa
:04005c004a03000053
:020000040000fa
:04006000ce040000ca
:020000040000fa
:04006400ce040000c6
:020000040000fa
:04006800ce040000c2
:020000040000fa
:04006c00ce040000be
:020000040000fa
:04007000ce040000ba
:020000040000fa
:04007400ce040000b6
:020000040000fa
:04007800ce040000b2
:020000040000fa
:04007c00ce040000ae
:020000040000fa
:04008000ce040000aa
:020000040000fa
:04008400ce040000a6
:020000040000fa
:04008800ce040000a2
:020000040000fa
:04008c00ce0400009e
:020000040000fa
:04009000ce0400009a
:020000040000fa
:040094001203000053
:020000040000fa
:04009800ce04000092
:020000040000fa
:04009c00ce0400008e
:020000040000fa
:0400a000ce0400008a
:020000040000fa
:0400a400ce04000086
:020000040000fa
:0400a800ce04000082
:020000040000fa
:0400ac00ce0400007e
:020000040000fa
:0400b000ce0400007a
:020000040000fa
:0400b400ce04000076
:020000040000fa
:0400b800ce04000072
:020000040000fa
:0400bc00ce0400006e
:020000040000fa
:0400c000ce0400006a
:020000040000fa
:0400c400ce04000066
:020000040000fa
:0400c800ce04000062
:020000040000fa
:0400cc00ce0400005e
:020000040000fa
:0400d000ce0400005a
:020000040000fa
:0400d400ce04000056
:020000040000fa
:0400d800ce04000052
:020000040000fa
:0400dc00ce0400004e
:020000040000fa
:0400e000ce0400004a
:020000040000fa
:0400e400ce04000046
:020000040000fa
:0400e800ce04000042
:020000040000fa
:0400ec00ce0400003e
:020000040000fa
:0400f000ce0400003a
:020000040000fa
:0400f400ce04000036
:020000040000fa
:0400f800ce04000032
:020000040000fa
:0400fc00ce0400002e
:020000040000fa
:04010000ce04000029
:020000040000fa
:04010400ce04000025
:020000040000fa
:04010800ce04000021
:020000040000fa
:04010c00ce0400001d
:020000040000fa
:04011000ce04000019
:020000040000fa
:04011400ce04000015
:020000040000fa
:04011800ce04000011
:020000040000fa
:04011c00ce0400000d
:020000040000fa
:04012000ce04000009
:020000040000fa
:04012400ce04000005
:020000040000fa
:04012800ce04000001
:020000040000fa
:04012c00ce040000fd
:020000040000fa
:04013000ce040000f9
:020000040000fa
:04013400ce040000f5
:020000040000fa
:04013800ce040000f1
:020000040000fa
:04013c00ce040000ed
:020000040000fa
:04014000ce040000e9
:020000040000fa
:04014400ce040000e5
:020000040000fa
:04014800ce040000e1
:020000040000fa
:04014c00ce040000dd
:020000040000fa
:04015000ce040000d9
:020000040000fa
:04015400ce040000d5
:020000040000fa
:04015800ce040000d1
:020000040000fa
:04015c00ce040000cd
:020000040000fa
:04016000ce040000c9
:020000040000fa
:04016400ce040000c5
:020000040000fa
:04016800ce040000c1
:020000040000fa
:04016c00ce040000bd
:020000040000fa
:04017000ce040000b9
:020000040000fa
:04017400ce040000b5
:020000040000fa
:04017800ce040000b1
:020000040000fa
:04017c00ce040000ad
:020000040000fa
:04018000ce040000a9
:020000040000fa
:04018400ce040000a5
:020000040000fa
:04018800ce040000a1
:020000040000fa
:04018c00ce0400009d
:020000040000fa
:04019000ce04000099
:020000040000fa
:04019400ce04000095
:020000040000fa
:04019800ce04000091
:020000040000fa
:04019c00ce0400008d
:020000040000fa
:0401a000ce04000089
:020000040000fa
:0401a400ce04000085
:020000040000fa
:0401a800ce04000081
:020000040000fa
:0401ac00ce0400007d
:020000040000fa
:0401b000ce04000079
:020000040000fa
:0401b400ce04000075
:020000040000fa
:0401b800ce04000071
:020000040000fa
:0401bc00ce0400006d
:020000040000fa
:0401c000ce04000069
:020000040000fa
:0401c400ce04000065
:020000040000fa
:0401c800ce04000061
:020000040000fa
:0401cc00ce0400005d
:020000040000fa
:0401d000ce04000059
:020000040000fa
:0401d400ce04000055
:020000040000fa
:0401d800ce04000051
:020000040000fa
:0401dc00ce0400004d
:020000040000fa
:0401e000ce04000049
:020000040000fa
:0401e400ce04000045
:020000040000fa
:0401e800ce04000041
:020000040000fa
:0401ec00ce0400003d
:020000040000fa
:0401f000ce04000039
:020000040000fa
:0401f400ce04000035
:020000040000fa
:0401f800ce04000031
:020000040000fa
:0401fc00ce0400002d
:020000040000fa
:04020000ce04000028
:020000040000fa
:04020400ce04000024
:020000040000fa
:04020800ce04000020
:020000040000fa
:04020c00ce0400001c
:020000040000fa
:04021000ce04000018
:020000040000fa
:04021400ce04000014
:020000040000fa
:04021800ce04000010
:020000040000fa
:04021c00ce0400000c
:020000040000fa
:04022000ce04000008
:020000040000fa
:04022400ce04000004
:020000040000fa
:04022800ce04000000
:020000040000fa
:04022c00ce040000fc
:020000040000fa
:04023000ce040000f8
:020000040000fa
:04023400ce040000f4
:020000040000fa
:04023800ce040000f0
:020000040000fa
:04023c00ce040000ec
:020000040000fa
:04024000ce040000e8
:020000040000fa
:04024400ce040000e4
:020000040000fa
:04024800ce040000e0
:020000040000fa
:04024c00ce040000dc
:020000040000fa
:04025000ce040000d8
:020000040000fa
:04025400ce040000d4
:020000040000fa
:04025800ce040000d0
:020000040000fa
:04025c00ce040000cc
:020000040000fa
:04026000ce040000c8
:020000040000fa
:04026400ce040000c4
:020000040000fa
:100400004f0521000eff27000e01880000000000ac
:10041000000020000000e000020032000001200087
:1004200020028800140007005e0107000000e000c1
:1004300003003a0040bf2100010020000200370005
:100440000000200001002000810f70000100320038
:100450000f000700000020000000e0000200320052
:1004600000000200000000009c0d020000000000df
:100470000040da000000fe00400020000000e00024
:1004800002003200002020009001880000000600d9
:10049000a1028800800478000000eb001f003700f4
:1004a000e284440054a0b4009905ba00e2844400f8
:1004b00054a0b4009906ba00e284440054a0b400e9
:1004c0000006eb00476fde00fd07b200ae018800ba
:1004d000636ce10003003a000ad801000000eb0061
:1004e0000e003700606ce10008003a00004deb00a0
:1004f0000a05e800020039003420ec000af0a000f0
:100500008b05e900f9ff3e00040037006168e10057
:10051000010032000086eb000b00070019c7ba008b
:100520000e04e0001905ba0003003a000a00e000da
:10053000dbff3a0000000600fe07b200ae028800b2
:100540008a047800f5ff37000cd0a300e20f4d00bd
:100550001c003b0089027800354dba000a05e8000e
:10056000020039003420ec000af0a0008b05e900fd
:100570000f003200254dba000a05e80002003900dc
:100580003420ec000af0a0008b05e90008003200de
:100590000c00e0000600320015cdba000a05e800a4
:1005a000020039003420ec000af0a0008b05e900bd
:1005b0008984e80054a0b4000b00e000e2ff3a0098
:1005c000000006009902ba00055d78008b05e9007d
:1005d000f7ff3200c82ade00055d78008b05e900d0
:1005e000f3ff32000c00e000f1ff320019ddba0029
:1005f000eeff370086110400000000000000fa0042
:100600000068a900000000000080fa000040060019
:100610000000fa000108a900000000000080fa00b4
:10062000004006003600f800809fbe00829fbe009a
:10063000849fbe00869fbe000000fa000368a900e8
:10064000808080009180800061004000e080480050
:100650008080880091808800a0808000b180800028
:1006600061004000e0804800a0808800b1808800e0
:10067000200c0700000000000080fa004f03be00bd
:100680004f02be004f01be004f00be003600f90011
:10069000004006003600f800809fbe00829fbe002a
:1006a000849fbe00869fbe000a00fa0001a8a90030
:1006b00001302000110f78001118800011079800f8
:1006c0002118800021079800311880003107980018
:1006d0004118800041079800400620009e007800e5
:1006e000808f5000190036001e0078008000eb005b
:1006f000f00007000001be0000802d0041722400c0
:10070000f101070000017800010078008202780002
:100710000002780002002000030a2400050078008f
:10072000840078000000be00f90007008001780016
:100730000101780003007800820078000000be000c
:1007400030828800418288000400370000002000c9
:10075000012a240030828800418288009e00900097
:1007600040062000808f5000190036001e009000c7
:100770008000eb00cf0007000001be0000802d00cc
:1007800041722400d00107000001780001007800c8
:10079000820278000002780002002000030a240090
:1007a00005007800840078000000be00d800070033
:1007b0008001780001017800030078008200780051
:1007c0000000be00f081880001828800040037002c
:1007d00000002000012a2400f081880001828800a6
:1007e000ae00900040062000808f500019003600b7
:1007f0002e0090008000eb00ae0007000001be005c
:1008000000802d0041722400af0107000001780034
:1008100001007800820278000002780002002000c7
:10082000030a240005007800840078000000be0060
:10083000b70007008001780001017800030078000c
:10084000820078000000be00d0818800e18188002d
:100850000400370000002000012a2400d081880015
:10086000e1818800be00900040062000808f50008b
:10087000190036003e0090008000eb008d0007005c
:100880000001be0000802d00417224008e0107008f
:1008900000017800010078008202780000027800f0
:1008a00002002000030a240005007800840078007c
:1008b0000000be009600070080017800010178006a
:1008c00003007800820078000000be00b08188003c
:1008d000c18188000400370000002000012a2400a4
:1008e000b0818800c1818800ce00900040062000c1
:1008f000808f5000190036004e0090008000eb0001
:100900006c0007000001be0000802d004172240031
:100910006d01070000017800010078008202780074
:100920000002780002002000030a2400050078007d
:10093000840078000000be00750007008001780088
:100940000101780003007800820078000000be00fa
:1009500010828800218288000400370000002000f7
:10096000012a2400108288002182880010c0b30070
:1009700021f0b7003f05070015090700000000003f
:100980000080fa004f03be004f02be004f01be00c0
:100990004f00be003600f900004006000040da00bb
:1009a0000000fe000000050014002000ad03370029
:1009b000f4ff2f00ab0337000001be003f0007002b
:1009c0000470a70003f0a1006509b1001600320011
:1009d0000d0035006828e10006003500f0ff2f000b
:1009e000f1ff27000300e00013003b000100280096
:1009f0000000050000004000818048008502e900f9
:100a0000fcff3a0008003700f88f420002003c006b
:100a10008000eb00000005008100d1000080d300c1
:100a20008502e800fcff3a000300e00002003b0002
:100a300060001000e0801800000006000001be0009
:100a40001e0007000470a70003f0a10003f8a30034
:100a500013003a006509b1001000320009003500aa
:100a60006928e100020035000100280000000500af
:100a700000004000818048008502e900fcff3a0048
:100a800000000600f88f4200050035008100d1000b
:100a90000080d3008502e800fcff3a000000060059
:100aa0008000eb00000005004f89de008201780025
:100ab000870337006011b80095033700c70ade00ce
:100ac000f107b200f50fb20008003200e1cf42009a
:100ad000020032000170a00024000500810f7000a8
:100ae000010032000408050044000500810f700079
:100af00002003a00140005008502e90000004000f1
:100b000081c04800fcff3b000170a00024000500ec
:100b100007f82700078361000638e10004003a0067
:100b2000f7072000878361008703710001003a0006
:100b300003f0a200889fbe008a9fbe008c9fbe006b
:100b4000470ade000480a100c71ade000580a1006c
:100b5000070028000785600087856100f70f2000e7
:100b60000720e1009e0032000728e1009c003200cf
:100b7000010678000400e000b4003200f70720000e
:100b8000878060000170a0000500e000c000320016
:100b9000f7072000878161000370a000050652005e
:100ba0000f003a000b50e1000b0032000308e10097
:100bb00002003a000200e1007e0032000204500010
:100bc00083845800040031000001fd008101fd0014
:100bd0008402fd008a05fd006044b8002100370052
:100be0000520e10005003d000001fd008101fd0040
:100bf0008402fd008a05fd00050652007a60e100ce
:100c0000050035000170a1004722dd0084807000de
:100c10008a807000630037006044b800ef0266000d
:100c200007ff2f00070666000500e00006003400fd
:100c3000f08312008714dd000511de00071bdd00c4
:100c4000060171008519de007060e10005003500c5
:100c50000904780082047800030178008001eb0029
:100c6000700656000b50e10003003a0002004000fd
:100c7000838048000400370060041400e0841c00f6
:100c800002005800838058000188a300060032004b
:100c90008100d1000080d3008984d3000884d30070
:100ca0000402e800270037000178a30025003a007d
:100cb0000100e000030032008186cf006986560003
:100cc0000a0037008c0020000000e00004003a0019
:100cd00009007800880478000004eb0070025200dc
:100ce0008086cf000d0646000c06e9007060e1002a
:100cf000060035008000780009007800880478003c
:100d00000004eb0070065600700252000c00e00078
:100d10000c0034008c08dd00f00316000703de0031
:100d2000868070000c00dd00074bde0006007000be
:100d30008c4cdd000743de00868474000c44dd002b
:100d40000c0252006120e1002000350061016000ca
:100d50000700280087816400f7ff2700878364006d
:100d6000070374000300e0000600320082037300f2
:100d7000040032000000e800e08048000188a30081
:100d80000e003a00f70f20000720e1004a003d0066
:100d90000170a1004722dd00810072008a8070008e
:100da0000000be004f06be004f05be004f04be004f
:100db000000006006000b800faff37008100d10093
:100dc0000080d3000402e800eeff37000401780041
:100dd00089017400a10107008a807000f1ff3700cb
:100de000f7010700070278000001fd008101fd0006
:100df000f301070087027800850372000778a300db
:100e0000040032000001fd008101fd000602070020
:100e1000e4ff3700850362000768a3000800320082
:100e20000b50e10003003200f0ff2f00f1ff27001c
:100e3000dcff37000001fd008101fd00d9ff370014
:100e40000468a300d7ff3200faff3700f8ff27003d
:100e5000888360000b003a000000e00009003a00bf
:100e60008303640082837300020032000200be002c
:100e7000ccff37000b50e100ceff3a000200be006d
:100e8000c8ff370014002000810064003eff3700d7
:100e9000f8ff27008883610004003a000200e000a8
:100ea00002003a008c007800beff370015002000d9
:100eb0008301640039ff370001f82700000020009b
:100ec00081007500b7ff3700889fbe008a9fbe0073
:100ed0008c9fbe001b0020000202be000586680039
:100ee00006002800060666004709de00f20fb20081
:100ef000820032000243e80080003200c729de0091
:100f0000f30fb2007d0032000343e8007b003200a3
:100f1000f107b2000170a000f507b2000570a00053
:100f2000c708dd004903de00868070004700dd0051
:100f3000c72add004923de00868272004722dd00d9
:100f4000030551000403500085835800030031005d
:100f500000004000818048000a05e9008c1f7800ed
:100f60008a9fbe00040050008580580004024200a1
:100f700085824a0000004000818048000005eb00a7
:100f80000004be006033b8000406be000d48e10056
:100f900056003100110009004dccd8000c01b800fa
:100fa0000d02b8008481410060824a0082835300b0
:100fb00003045c0084845c0060055d000a00e000be
:100fc00025003a00800578000d40e100490031001d
:100fd0008800780007007800110009004d88d800cb
:100fe0000c01b8000d02b8008481410060824a0003
:100ff0006003110083835b0004045c00e0845c00f8
:101000000900e00021003a004f01be000300e000ab
:101010002b003200e3016000070673008c81710031
:1010200001003200640070004200de004e5edd0010
:101030000c007000c258de0001e0a0008301070030
:10104000cf017800818071004f06be004f05be00c1
:101050004f04be00000006008c8343000d044c00ca
:10106000e0844c0060054d000000e9000a00e0004b
:10107000d4ff32008c8343000d044c00e0844c000c
:1010800060054d000000e900ceff37000c0343006f
:101090008d834b0060044c00e0844c000000e900ac
:1010a0000900e000d8ff32000c0343008d834b00a1
:1010b00060044c00e0844c000000e900d2ff3700df
:1010c0004200de004e5edd000c007000c258de0003
:1010d00001e0a000cf0178000300e000daff320059
:1010e00060001000e0801800d7ff3700f0ff2f00ed
:1010f000aaff3700f0ff2f00b9ff37000404be003d
:101100002f010700870678000004fd008104fd0020
:101110002b010700078366000678a3000300320056
:101120000960a7000800be002c0037000d78a3005e
:10113000020032000800be00280037000778a30034
:1011400026003a0001f0a10009f0a1000668a30002
:1011500003003200f1ff2700f0ff2f00baff370035
:101160000d68a300030032000800be008c807000f0
:10117000b5ff37000768a30007003a000648a30040
:1011800003003200f1ff2700f0ff2f00aeff370011
:101190000d48a300030032006000b8008c8070008e
:1011a000a9ff37000748a3000400320001f8270018
:1011b000000020008c807000a3ff3700760107003c
:1011c0000004fd008104fd000205780072010700a3
:1011d0000802be008a01780059ff37000160a000b4
:1011e000120220001281880097ff37000100e00002
:1011f000120032000500e00010003200889fbe009f
:101200008a9fbe008c9fbe000006eb0001f8a30081
:101210000300320060001000e08018000cf0a00015
:1012200005f8a3000300320060021200e0821a00f9
:101230000cf0a2008005eb0041ff37006000b80011
:10124000020005000383680007002800070363000d
:10125000470ade000480a100c71ade000580a10055
:10126000f70f20000720e100420032000728e100cc
:1012700040003200889fbe008a9fbe008c1f78000d
:10128000f107b200f307b2000400e000640032008e
:101290000170a0000500e000680032000370a000ab
:1012a00085054200eb07b1000204b8000302b80054
:1012b0008484440060854a00020ab80084844400a3
:1012c0000a854a00030ab8000405450004003300fb
:1012d0000804d0008984d2000a85d2008b05e90079
:1012e0006158e1003d003500021020000901610055
:1012f0000308200089816100f707200087836400cc
:1013000008867300c84cde00c853dd008784740073
:101310004855de000300e00006003200820376003c
:10132000040032008904e80060054d000a88a3002b
:101330000c003a00f70f20000758e10044003d0080
:101340000a70a100c75ddd000a8575008a00730080
:10135000090078004f0678004f05be004f04be001c
:10136000000006000a05d1008984d3008b05e8003f
:10137000f0ff3700881f780006047800900007000f
:10138000070278000001fd008101fd008c000700cc
:1013900087027800850372000778a30005003200f9
:1013a0000001fd008101fd009f0007004f0478004f
:1013b00000000600850372000748a3000300320006
:1013c000f0ff2f00f1ff2700f8ff3700000020009a
:1013d00001f8270088807000f4ff3700880178004a
:1013e0004848dd00808171004848de00c850dd00bb
:1013f00001007000c850de00060478000b01780080
:101400001600070088807000d2ff37000500e0005a
:1014100005003200170020003a0007009dff37004a
:1014200081037000f9ff3a00860078004f067800cb
:101430004f05be004f04be0000000500830371008d
:10144000f9ff3200270020002e00070094ff37002c
:1014500001f8270086807000f4ff37000100e000eb
:1014600026003200610111007810e10023003c00e9
:101470006022b8007010e10004003500800278009e
:10148000010078008000eb00700151000200e000d4
:101490000900340070031100062add00822ade00f4
:1014a0008603dd00878272000200de00860bdd000d
:1014b000070070008208de0084817100f4ff2700bd
:1014c000048262008481710004002800848262002a
:1014d0006102600005f0a6000000060004827100b1
:1014e000070032000000e800e0804800000006002d
:1014f0000002be006000b800efff37006000b800d7
:1015000000000600889fbe000004eb006138e10087
:1015100016003a000100e00008003a00c800de00b2
:101520004800dd00880020000100e00003003a00d0
:10153000c800de004800dd00680444008184cf005c
:10154000e9845400060034008908dd00f0831400ab
:101550008703de00878070000900dd000904440075
:10156000610214004f04be00000006000300e0000a
:1015700008003a00c811de004811dd008800200094
:101580000300e00003003a00c811de004811dd004e
:10159000680444008384cf00e984540006003400ca
:1015a0008919dd00f08314008713de008781710044
:1015b0000911dd0009044400e1021400e9ff3700cd
:1015c0002700200001f0a70017002000470bde00d5
:1015d000f60fb200040032000643e8000a003200b1
:1015e0004702b3000000060001037800f607b200ce
:1015f0000603700002003a000703b3000000060073
:101600008702b3000000060001037800f607b2006d
:1016100006037000020032000770a0000000060000
:101620000760a000000006000478a3000400320058
:101630000578a300030032000168a30001003a000e
:101640000200be000160a0000000060081017000e1
:10165000270032008002eb0001f8a30003003200f3
:1016600060001000e080180015002000f407200042
:101670000202420020003400f703200087036000cc
:10168000060420000003630002082000000161003e
:101690004700de00c909dd0000807100c708de00d8
:1016a0000600e000080032008703710006003200e7
:1016b0001000b0000180b0000188a30002003200d9
:1016c000c108de000402e800f107b200f30f2000b9
:1016d0000320e10003003d004722dd00810072008d
:1016e0002900370001f827000000eb002600370032
:1016f0006000b80000000600680212007f20e100d0
:10170000020034006000b8001f0037006011b8000c
:101710007020e100040035008001780001007800ad
:101720008000eb00700252000400e0000900340069
:10173000f00312000719dd008419de000703dd0045
:10174000868171000400de00070bdd0006007000da
:101750008408de00f7ff270083836300870371009e
:101760000600280003036300070032000700e000c2
:1017700003003a0061016000028173000200320040
:101780001000b0000180b0000500a60000000600b7
:1017900001f0a000000006004f0ade004709de004d
:1017a000f107b200f20fb2000b003200f207b100f5
:1017b0000170a000c708dd00c901de008380700051
:1017c0004700dd000400a6000000060060001000d5
:1017d000e080180000000600810f700001003a0050
:1017e000000006008182cf000500e00010003e00ee
:1017f0008082cf00ee8242007028e10004003900b0
:1018000007003e00800078000000eb000e0037006b
:10181000708312008600de000500dd000a0037003c
:10182000708352008600dd000000eb0006003700e8
:10183000e28252008508dd00708312000603de009c
:10184000868070000500dd007507b0000501ea0024
:101850000400a6000000060060001000e0801800f0
:1018600000000600889fbe008a9fbe00841f78008b
:101870007c0007004f00780011003300f0ff2f00bc
:10188000838f6c0006003b00040565000a00a7007a
:101890000800370009f0a6001000200008003700fb
:1018a000820f5400838f5c00030039001000200079
:1018b00001003e000000200009f0a7000000ea003f
:1018c0004f05be004f04be000000e000000006000f
:1018d000881f7800030478000300e00007003d0043
:1018e00060001000e080180060011900e08119001c
:1018f00002003b0001f02d00030037000400070048
:1019000008f0a70001f0a0004f04780000000600d6
:10191000889fbe008a9fbe00008270000402710092
:1019200004827100260032000004be000200be00e6
:101930006011b8006b092000950220000182cf00e1
:101940000a0039000541b1000082cf0007003900cc
:101950000541b1000982cf00040039000541b10002
:101960000882cf00010039000541b1000542520054
:10197000120032000a003b008281710061016400a4
:101980008100d1000080d3008984d3000884d30073
:101990008b05e8000442e800f7ff3a000700370033
:1019a0000804440089844c000000480081804800fd
:1019b0008b05e9000442e900f9ff3a000300070043
:1019c0004f05be004f04be0000000600810020004d
:1019d000618055000b003d000b00200061fe2f00d0
:1019e0000100e1001d00340082817100610164008a
:1019f0008904d1000884d3000000e800faff3a000f
:101a000071002000610064000300700002006000ab
:101a10000900320061044400e0844c000988a500fc
:101a2000050032008b05e8006808e10002003a007a
:101a30008904d1000884d300f20f20000258e1008d
:101a400005003d00c75ddd00f907b2008980750023
:101a500008007800000006000bf827008b007800d3
:101a6000000005000004be0014fc07000003be00d7
:101a70000405be000200be0010fc0700844f750084
:041a8000000006005c
:020000040000fa
:081a840060ea00000000000010
:020000040000fa
:101a8c000000fa000041eb006000b800dd05070023
:101a9c0012c0b3006000b800da05070001eca90021
:101aac0084cea80084aea800848ea800856ea80001
:101abc00754ea800000000000080fa00000006002f
:101acc000000fa00d0818000e1818000020020003b
:101adc0003222400b3fb07000000e00010003400d8
:101aec00f08180000182800002002000032224008b
:101afc00acfb07000000e00009003400b08180005e
:101b0c00c18180000200200003222400a5fb0700f5
:101b1c000000e0000200340010002000010037003b
:101b2c000000eb000080fa00000006000000fa0044
:101b3c00881f78008a9fbe0065060700fc06070018
:101b4c00e8020700f30207000c03070081040700fa
:101b5c00ad06070084cea90084aea900848ea9002e
:101b6c00856ea900754ea90001eca9000370ef0069
:101b7c006018210050808800370037009073800077
:101b8c000000d10061406000e14f500017003a00a6
:101b9c00a0808000b1808000208088003180880087
:101bac0010c0b30008f0b70001eca80020c0b300cf
:101bbc0003f0b700054ea800e0c1b30009f0b70070
:101bcc0000c1b3000cf0b7006018210050808800f1
:101bdc00c0c2b30000f0b700d0c1b30001f0b70031
:101bec0070c1b30002f0b7001b0037009073800087
:101bfc004200de0061406000e14f500016003a00e8
:101c0c00a0808000b1808000208088003180880016
:101c1c0010c0b30008f0b70001eca80020c0b3005e
:101c2c0003f0b700746ea800e0c1b30009f0b70070
:101c3c0000c1b3000cf0b700601821005080880080
:101c4c0010c2b30000f0b70060c1b30001f0b700e0
:101c5c0010c1b30002f0b70008d0bf000004e000d0
:101c6c00c6ff3200a0060700848ea800760037005d
:101c7c00a2808000b38080002080800031808000b2
:101c8c00000151008181590000a62e0001002000a6
:101c9c00800f5100818f5900030039000870ef004c
:101cac0077ff07006b00370098060700e14f5000e4
:101cbc0065003a0099060700da818000eb8180000c
:101ccc0000d0bf000080fb006100b90073fb07006f
:101cdc0018c0b3000001be000a00be002ffb0700b5
:101cec000000e000010035000044eb000880fb0020
:101cfc00610060004400dd00217480000140a100ff
:101d0c000100700020748800fa8180000b82800032
:101d1c0001d0bf000080fb006100b9005ffb070031
:101d2c0018c0b3000001be000a00be001bfb070078
:101d3c000000e000010035000044eb000880fb00cf
:101d4c00610060004500dd00217480000150a1009d
:101d5c000100700020748800ba818000cb81800063
:101d6c0001d0bf000080fb006100b9004bfb0700f5
:101d7c0018c0b3000001be000a00be0007fb07003c
:101d8c000000e000010035000044eb000880fb007f
:101d9c00610060004b00dd002174800001b0a100e7
:101dac0001007000207488001a8280002b82800051
:101dbc0002d0bf000080fb006100b90037fb0700b8
:101dcc0018c0b3000001be000a00be00f3fa070001
:101ddc000000e000010035000044eb000880fb002f
:101dec00610060004a00dd00a173800001a0a10029
:101dfc0001007000a07388003a8280004b82800042
:101e0c0002d0bf000080fb006100b90023fb07007b
:101e1c0018c0b3000001be000a00be00dffa0700c4
:101e2c000000e000010035000044eb000880fb00de
:101e3c00610060004600dd00217480000160a1009b
:101e4c00010070002074880008d0bf00e14f5000e2
:101e5c0087ff32000000eb004f05be004f047800f6
:101e6c000080fa00000006000000fa0003d0bf005a
:101e7c000080fb006100b900f2002000030020008c
:101e8c00820f5000838f580009013e0000060100ac
:101e9c000f00370017003700200037002e003700e6
:101eac003300370042003700600037006f00370006
:101ebc008d0037009f003700ad003700bf003700a2
:101ecc00cd003700d9003700e2003700ee003700b4
:101edc000041eb006000b800ca04070012c0b30058
:101eec006000b800c704070010c0b30003f0b700cf
:101efc00010137008280800093808000803e2000aa
:101f0c0001002000800f5100818f5900eb0036003a
:101f1c0020c0b30003f0b700e800370009d0bf00c1
:101f2c000080fb008000eb00dffa07000041eb00b3
:101f3c00b404070009d0bf000080fb008000eb0058
:101f4c00d9fa070012c0b300ae04070030c0b300ca
:101f5c0003f0b700e8003700508080000000e0007c
:101f6c00d80032005080800000000100d5003700fe
:101f7c000cd0bf000080fb008000eb00cafa070009
:101f8c000041eb009f04070012c0b30000002000ca
:101f9c0001f82b009b0407001030ef001230ef000b
:101fac000d70ef0050c0b30003f0b700d200370043
:101fbc008280800093808000007d20000100200042
:101fcc00800f5100818f590003003600c0c0b30050
:101fdc0003f0b700c80037000dd0bf000004e000cc
:101fec0008003a00b6fe07000000e000b70032001f
:101ffc0010c0b3000df0b7001030ef001230ef003e
:10200c00b20037008280800093808000800c20001a
:10201c0001002000800f5100818f5900ab00360069
:10202c0020c0b30003f0b700a80037000041eb005c
:10203c000000200001f82b00720407000cd0bf0038
:10204c000080fb008000eb0097fa070012c0b30081
:10205c006c0407001030ef001230ef000d70ef0031
:10206c0070c0b30003f0b700a3003700828080007b
:10207c0093808000007d200001002000800f510023
:10208c00818f590003003600c0c0b30003f0b700c5
:10209c00990037000dd0bf000004e00008003a00a2
:1020ac0087fe07000000e0008a00320010c0b30079
:1020bc000df0b7001030ef001230ef008500370044
:1020cc008280800093808000800c20000100200022
:1020dc00800f5100818f59007e00360020c0b30064
:1020ec0003f0b7007b0037000cd0bf000080fb0072
:1020fc008000eb006cfa07000041eb004104070084
:10210c000cd0bf000080fb000000ea006100b900a9
:10211c0062fa070012c0b3003a0407001030ef0057
:10212c001230ef000d70ef0090c0b30003f0b70059
:10213c007100370062fe07000000e0000200320070
:10214c0020c0b30003f0b700828080009380800031
:10215c00007d200001002000800f5100818f59006c
:10216c005e003600c0c0b30003f0b7005b00370060
:10217c000cd0bf000080fb000000ea006100b90039
:10218c0046fa07000041eb001e0407000cd0bf000c
:10219c000080fb008000eb0043fa070012c0b30084
:1021ac00180407001030ef001230ef000d70ef0034
:1021bc00b0c0b30003f0b7004f00370040fe07007b
:1021cc000000e0000200320020c0b30003f0b700b2
:1021dc008280800093808000007d20000100200020
:1021ec00800f5100818f59003e003600c0c0b300f3
:1021fc0003f0b7003b0037000041eb00000020006b
:10220c00011a2c00ff03070012c0b30000002000cd
:10221c00011a2c00fb0307001030ef001230ef0006
:10222c00d0c0b30003f0b7003300370082808000c9
:10223c0093808000f000200001002000800f5100ee
:10224c00818f590029003600e0c0b30003f0b700bd
:10225c00260037000041eb0000002000011a24008a
:10226c00e803070012c0b30000002000011a2c0084
:10227c00e40307001030ef001230ef00f0c0b300a1
:10228c0003f0b7001c003700828080009380800030
:10229c00f000200001002000800f5100818f5900b8
:1022ac001400360020c0b30003f0b7001100370053
:1022bc000370ef00000000000f003700000000006a
:1022cc000d003700000000000b003700000000007c
:1022dc000900370000000000070037000000000074
:1022ec00050037000000000003003700000000006c
:1022fc0001003700000000000080fa00000006001a
:10230c001600fa00889fbe00d2818000e381800015
:10231c001207980023079800f28180000382800046
:10232c003207980043079800b2818000c381800077
:10233c005207980063079800328280004382800025
:10234c0072079800030f980012828000238280008d
:10235c00120f9800230f98000040eb00004f7800fc
:10236c0002d0bf000080fb006100b900cbf9070070
:10237c000001be007e0090008e08900087f90700d7
:10238c000000e00003003d001e4078000044a00067
:10239c00004f780001d0bf000080fb006100b90045
:1023ac00bef907000001be003e009000ce00900078
:1023bc007af907000000e00003003d001e407800a1
:1023cc000034a000004f780000d0bf000080fb005c
:1023dc006100b900b1f907000001be001e009000b9
:1023ec00ae0090006df907000000e00003003d0016
:1023fc001e4078000024a000004f780001d0bf00e0
:10240c000080fb006100b900a4f907000001be00c8
:10241c005e009000ee00900060f907000000e00004
:10242c0003003d001e4078000014a000004f78000f
:10243c0002d0bf000080fb006100b90097f90700d3
:10244c000001be001e089000ae08900053f9070072
:10245c000000e00003003d001e4078000004a000d6
:10246c00004f780002002000031724001e0090008b
:10247c00ae00900049f907000000e0000e003500a6
:10248c0002002000031424003e009000ce009000b7
:10249c0042f907000000e0000700350002002000b0
:1024ac00031424005e009000ee0090003bf907003e
:1024bc000000e00021003d007e0190008e0990009c
:1024cc003e009000ce00900097f9070000017800c4
:1024dc000100780082047800000478001e09900046
:1024ec00ae0990005e009000ee0090008ef907009f
:1024fc00000178000100780082017800000178006a
:10250c0003007800820078000001be00090078000a
:10251c00880078000000be0020f907000000e000f1
:10252c0003003d00a0c0b3000ef0b7005a00370006
:10253c0080c0b3000ef0b700570037001e80fb00c0
:10254c006100b900f201200003002000820f50004e
:10255c00838f580046003e00000601001f00370024
:10256c0024003700230037002200370024003700f6
:10257c003300370032003700310037001a003700c3
:10258c003b0037003700370039003700290037008f
:10259c0037003700360037002c00370012003700a8
:1025ac002d00370032003700310037002100370092
:1025bc00260037002e0037002d0037000a003700a8
:1025cc002b0037002a00370029003700190037008c
:1025dc00270037001d0037001c00370020c0b30057
:1025ec000ef0b7002c00370060c0b3000ef0b7003f
:1025fc002900370040c0b3000ef0b70026003700aa
:10260c001e099000ae0990007e0090008e0890008c
:10261c00e4f807000000e0000300340040c0b30001
:10262c000ef0b7001c00370060c0b3000ef0b7000e
:10263c001900370060c0b3000ef0b7001600370069
:10264c0040c0b3000ef0b7001300370080c0b300d9
:10265c000ef0b7001000370020c0b3000ef0b7002a
:10266c000d00370080c0b3000ef0b7000a00370031
:10267c001e80fb00640060000000e00003003200dc
:10268c0080c0b3000ef0b7000200370020c0b300ca
:10269c000ef0b70000000000e1002100914078002e
:1026ac0003d0bf0080cf50000a0032000ed0bf0014
:1026bc000080fb0031002100914078008180fb00fc
:1026cc008100e900810f5000020032000ed0bf00e3
:1026dc0003f0b700000000004f04be000080fa00b9
:1026ec00000006000000fa0005e1a9000421a90081
:1026fc000068a9002068a80005e1a80000002000df
:10270c00812c240029000700000000000080fa0042
:10271c00000006000000fa0013e1a90011e1a90075
:10272c001061a8001021a900800880000040a100c1
:10273c000050a100800888000a21ef000621ef005c
:10274c00303920007008880000702800600888006c
:10275c00204280000000a0000010a1000020a10079
:10276c00204288000108a9002108a80011e1a80056
:10277c00000000000080fa00000006000000fa00d3
:10278c001fe1a9001e21a9000368a9002368a80065
:10279c001fe1a80000002000a1472400b80007009a
:1027ac00000000000080fa00000006000400fa009f
:1027bc00008fbe00200880000040a1000050a10046
:1027cc00200888001e0178009e019000001c2e003d
:1027dc0041c62400b9f90700000178000100780017
:1027ec00820278000002780002f02f00f3772400b8
:1027fc0005007800840078000000be0069f807002e
:10280c000000e0008d003400200880000040a00093
:10281c000050a100200888001e0178009e01900045
:10282c00001c2e0041c62400a4f90700000178000a
:10283c00010078008202780000027800020020007b
:10284c000310240005007800840078000000be000e
:10285c009af90700000178000100780082027800e4
:10286c000002780002f02f00f377240005007800b6
:10287c00840078000000be004af807000000e00069
:10288c0055003400200880000040a1000050a0003a
:10289c00200888001e0178009e019000001c2e006c
:1028ac0041c6240085f9070000017800010078007a
:1028bc008202780000027800020020000328240025
:1028cc0005007800840078000000be007bf907004a
:1028dc000001780001007800820278000002780084
:1028ec0002f02f00f37724000500780084007800b4
:1028fc000000be002bf807000000e0001d003400b3
:10290c00200880000040a0000050a0002008880093
:10291c001e0178009e019000001c2e0041c6240070
:10292c0066f9070000017800010078008202780047
:10293c000002780002002000033824000500780013
:10294c00840078000000be005cf9070000017800ec
:10295c000100780082017800000178000300780003
:10296c00820078000000be0010f8070010088800f4
:10297c00400037001e0178009e019000001c2e00c4
:10298c0041c624004df907000001780001007800d1
:10299c008202780000027800020020000328240044
:1029ac0005007800840078000000be0043f90700a1
:1029bc0000017800010078008201780000017800a5
:1029cc0003007800820078000000be00f7f70700d3
:1029dc0010088800270037001e0178009e01900027
:1029ec00001c2e0041c6240034f9070000017800b9
:1029fc0001007800820278000002780002002000ba
:102a0c000310240005007800840078000000be004c
:102a1c002af9070000017800010078008201780093
:102a2c000001780003007800820078000000be00ee
:102a3c00def70700100888000e0037001e01780032
:102a4c009e019000001c2e0041c624001bf90700bb
:102a5c000001780001007800820178000001780004
:102a6c0003007800820078000000be00cff707005a
:102a7c0010088800000000000080fa00000006002a
:102a8c000400fa00008fbe00f00880000040a10096
:102a9c000050a100f00888001e0178009e019000f3
:102aac00001c2e0041c6240004f907000001780028
:102abc0001007800820278000002780002f02f00fa
:102acc00f377240005007800840078000000be0035
:102adc00b4f707000000e0008d003400f00880001f
:102aec000040a0000050a100f00888001e017800f2
:102afc009e019000001c2e0041c62400eff8070038
:102b0c000001780001007800820278000002780051
:102b1c0002002000031024000500780084007800d7
:102b2c000000be00e5f80700000178000100780005
:102b3c00820278000002780002f02f00f377240064
:102b4c0005007800840078000000be0095f70700af
:102b5c000000e00055003400f00880000040a100a7
:102b6c000050a000f00888001e0178009e01900023
:102b7c00001c2e0041c62400d0f80700000178008c
:102b8c000100780082027800000278000200200028
:102b9c000328240005007800840078000000be00a3
:102bac00c6f8070000017800010078008202780066
:102bbc000002780002f02f00f37724000500780063
:102bcc00840078000000be0076f707000000e000eb
:102bdc001d003400f00880000040a0000050a00050
:102bec00f00888001e0178009e019000001c2e0049
:102bfc0041c62400b1f807000001780001007800fc
:102c0c0082027800000278000200200003382400c1
:102c1c0005007800840078000000be00a7f80700cb
:102c2c000001780001007800820178000001780032
:102c3c0003007800820078000000be005bf70700fc
:102c4c00d0088800400037001e0178009e019000db
:102c5c00001c2e0041c6240098f8070000017800e3
:102c6c000100780082027800000278000200200047
:102c7c000328240005007800840078000000be00c2
:102c8c008ef80700000178000100780082017800be
:102c9c000001780003007800820078000000be007c
:102cac0042f70700d0088800270037001e01780083
:102cbc009e019000001c2e0041c624007ff80700e6
:102ccc000001780001007800820278000002780090
:102cdc000200200003102400050078008400780016
:102cec000000be0075f807000001780001007800b4
:102cfc0082017800000178000300780082007800df
:102d0c000000be0029f70700d00888000e0037002d
:102d1c001e0178009e019000001c2e0041c624006c
:102d2c0066f8070000017800010078008201780045
:102d3c000001780003007800820078000000be00db
:102d4c001af70700d0088800000000000080fa0085
:102d5c00000006000000fa0002ccbf000000a10039
:102d6c000010a1000020a10002ecb700009620008a
:102d7c00206088001061800000a0a00000b0a000be
:102d8c001061880023cca80023eca80030002000a0
:102d9c00206188001062800000a0a00000b0a0009c
:102dac001062880043cca80043eca800300020003f
:102dbc002062880001eca800000000000080fa00ee
:102dcc00000006000000fa00889fbe008a9fbe002b
:102ddc0054818000658180003081800041818000b9
:102dec000001be000400be00ecf607000000e0008d
:102dfc0014003d003881800049818000548180009e
:102e0c0065818000e0808000f18080000001be00c0
:102e1c000400be0044f707000001780001007800b0
:102e2c0082027800000278000801be0005007800dc
:102e3c00840078000000be00340107005081880037
:102e4c006181880054818000658180003081800020
:102e5c00418180000001be000400be00d1f60700d5
:102e6c000000e0001c0034003881800049818000a3
:102e7c005a8180006b818000e0808000f1808000ae
:102e8c000001be0028f7070000017800010078005f
:102e9c00820178000001780003007800820078003d
:102eac000001be000a00be0016f707000001780002
:102ebc000100780082027800000278000801be0050
:102ecc0005007800840078000000be00f8000700c0
:102edc005081880061818800508180006181800070
:102eec006011b800aff607000000e0001e003500ce
:102efc00508180006181800002002000031c2400ae
:102f0c00cdf80700000178000100780082027800fb
:102f1c0000027800c0808000d18080000001be00db
:102f2c0005007800840078000000be00fef6070063
:102f3c00000178000100780082017800000178001f
:102f4c0003007800820078000000be00b8f607008d
:102f5c0030618800c0808000d1808000b4f607000a
:102f6c00706188001e003700c0808000d180800016
:102f7c00aff60700306188005081800061818000cd
:102f8c0001f0a20002002000031c2400aaf8070094
:102f9c0000017800010078008202780000027800bd
:102fac00c0808000d18080000001be000500780048
:102fbc00840078000000be00dbf6070000017800fa
:102fcc00010078008201780000017800030078008d
:102fdc00820078000000be0095f607007061880042
:102fec0094818000a58180007081800081818000a7
:102ffc000001be000400be0068f607000000e000ff
:10300c0014003d00788180008981800094818000cb
:10301c00a5818000e0808000f18080000001be006e
:10302c000400be00c0f60700000178000100780023
:10303c0082027800000278000801be0005007800ca
:10304c00840078000000be00b0000700908188006a
:10305c00a181880094818000a5818000708180000e
:10306c00818180000001be000400be004df6070007
:10307c000000e0001c003400788180008981800011
:10308c009a818000ab818000e0808000f18080001c
:10309c000001be00a4f607000001780001007800d2
:1030ac00820178000001780003007800820078002b
:1030bc000001be000a00be0092f607000001780075
:1030cc000100780082027800000278000801be003e
:1030dc0005007800840078000000be007400070032
:1030ec0090818800a181880090818000a18180005e
:1030fc006011b8002bf607000000e0001e00350040
:10310c0090818000a181800002002000031c24001b
:10311c0049f807000001780001007800820278006d
:10312c0000027800c0808000d18080000001be00c9
:10313c0005007800840078000000be007af60700d5
:10314c00000178000100780082017800000178000d
:10315c0003007800820078000000be0034f60700ff
:10316c0030628800c0808000d180800030f607007b
:10317c00706288001e003700c0808000d180800003
:10318c002bf607003062880090818000a1818000be
:10319c0001f0a20002002000031c240026f8070006
:1031ac0000017800010078008202780000027800ab
:1031bc00c0808000d18080000001be000500780036
:1031cc00840078000000be0057f60700000178006c
:1031dc00010078008201780000017800030078007b
:1031ec00820078000000be0011f6070070628800b3
:1031fc00000000004f05be004f04be000080fa0026
:10320c00000006000600fa00008fbe00424798003e
:10321c004e409000e14f500005003a001e0178002e
:10322c009e0190003281880043818800080037009d
:10323c004e4090000004e00005003a001e007800ab
:10324c009e00900001f0a2007081880081818800ae
:10325c00000000000080fa00000006000400fa00e4
:10326c00008fbe006011b8001e0078009e00900018
:10327c00ccf507000000e000030035001e007800cc
:10328c009e009000030037001e0078009e00900006
:10329c0001f0a200800178000101780003007800a1
:1032ac00820078000000be000080fa0000000600da
:1032bc000800fa00008fbe00220798003307980020
:1032cc002e019000be0190001e0078009e00900020
:1032dc00b4f507000000e000030034009e00780005
:1032ec001e00900002003700ae0090003e009000df
:1032fc0081017800000178000300780082007800da
:10330c000000be000080fa00000006000800fa0071
:10331c00008fbe0022079800330798002e01900002
:10332c00be0190001e0078009e0090009bf50700e7
:10333c000000e00003003d009e0078001e0090009d
:10334c0002003700ae0090003e0090008101780032
:10335c000001780003007800820078000000be00b5
:10336c000080fa00000006000c00fa00008fbe007e
:10337c0022079800330798004407980055079800d7
:10338c004e019000de0190001e0078009e0090001f
:10339c0084f507000000e000040034004e019000aa
:1033ac00de019000028fbe000a0037002e01900053
:1033bc00be0190001e0078009e00900077f507007b
:1033cc000000e00003003d002e019000be019000c3
:1033dc00028fbe009e0078001e00900081017800d4
:1033ec000001780003007800820078000000be0025
:1033fc000080fa00000006000400fa00008fbe00f6
:10340c00b2fd2000930424001e0078009e00900062
:10341c00aaf607000001780001007800820278000b
:10342c0000027800020020004333240005007800dd
:10343c00840078000000be007ff7070000017800d0
:10344c00010078008200780081017800000178008a
:10345c0003007800820078000000be000080fa00b3
:10346c00000006000400fa00008fbe00b2fd200030
:10347c00930424001e0078009e0090006ef7070055
:10348c0000017800010078008202780000027800c8
:10349c0002002000433324000500780084007800eb
:1034ac000000be0085f607000001780001007800de
:1034bc008200780081017800000178000300780018
:1034cc00820078000000be000080fa0000000600b8
:1034dc000000fa00817420009140780000ccb30009
:1034ec0000c060007041b30048e7b700313a80007b
:1034fc0000e02f008080600080052000010070003b
:10350c00303a8800203a80000060a1000070a100d1
:10351c00203a8800213a800000fe2f0000806000d5
:10352c000000a000203a880012c0b30080c7b3008e
:10353c00a1c9b30033742000804978008149780018
:10354c0082497800103a80000040780000417800f1
:10355c000204a00060c4b30071c5b3002374200042
:10356c008049780081497800824978000000000089
:10357c00103a80004c00de0067406000e14f5000c4
:10358c00fbff3a005927a800c03a80000000a000b9
:10359c000010a1000020a100c03a88005ac7bf004b
:1035ac000000a0000010a0000020a0005ae7b70007
:1035bc00c03a80000050a1000060a0000070a00084
:1035cc00c03a880059a7a80059e7a80000000000dd
:1035dc00c03a80004e00de0061406000e14f5000b8
:1035ec00fbff3a0000000000103a80004500de00ae
:1035fc0061406000e14f5000fbff3a00000000000a
:10360c000080fa00000006000000fa0021e3a90087
:10361c002143a800001980000080a1000090a100a7
:10362c00001988002043a900001980000050a00058
:10363c000060a0000070a000001988001019800024
:10364c0000d0a10000e0a10000f0a100101988003a
:10365c002343a800101980000080a1000090a10055
:10366c00101988001119800030f82f0000806000bc
:10367c000040a000101988002203a9002223a900f1
:10368c0025e3a900f0c0b30024e3b70021198000a2
:10369c00f00f2e008080600000f020000100700010
:1036ac00201988003303a9001e0ea8001f0ea800c5
:1036bc001f2ea8001f4ea8001f6ea8003003a800e4
:1036cc003103a8003123a8003143a8003163a800be
:1036dc0001a8a90021a8a80021e3a800000000006f
:1036ec000080fa00000006000000fa002023a80069
:1036fc00000000000080fa00000006000000fa0044
:10370c00a00421000080fa00000006000000fa006e
:10371c0021d0bf000080fa00000006000000fa0073
:10372c002170ef00000000000080fa00000006008d
:10373c000000fa000e2eef001e2eef003e2eef00c2
:10374c002e2eef004e2eef006e2eef0080cea90035
:10375c0080aea900808ea900816ea900714ea900cf
:10376c00706ea900014ea900012ea900000ea80040
:10377c0091eea900702ea8000e00070003000700b0
:10378c00000000000080fa00000006000000fa00b3
:10379c002174200062042000730520008248780008
:1037ac008348780042c7a800000000000080fa009f
:1037bc00000006000000fa002174200062042000c2
:1037cc0073052000824878008348780042c7a9001e
:0c37dc00000000000080fa000000060061
:020000040000fa
:1037e8000010000010000000800000001010000011
:1037f80008000000800000002410000026000000df
:10380800800000001810000008000000820000007e
:103818000000480042000000c84200004a100000b2
:103828000a000000800000002010000002000000d4
:10383800800000002210000002000000800000004c
:04384800000000007c
:020000040000fa
:0200000401f009
:04000800cfffff0027
:020000040000fa
:0200000401f009
:04000c00f9ffff00f9
:020000040000fa
:0200000401f009
:040010005bffff0093
:020000040000fa
:0200000401f009
:040014007fffff006b
:020000040000fa
:0200000401f009
:04001800cfffff0017
:020000040000fa
:0200000401f009
:04001c00deffff0004
:020000040000fa
:0200000401f009
:04002000cfffff000f
:00000001FF
