:020000040000fa
:080000000002040000000000f2
:020000040000fa
:040008007803000079
:020000040000fa
:04000c007803000075
:020000040000fa
:040010007803000071
:020000040000fa
:04001400780300006d
:020000040000fa
:040018007803000069
:020000040000fa
:04001c007803000065
:020000040000fa
:040020007803000061
:020000040000fa
:04002400780300005d
:020000040000fa
:040028007803000059
:020000040000fa
:04002c007803000055
:020000040000fa
:040030007803000051
:020000040000fa
:04003400fa020000cc
:020000040000fa
:040038007803000049
:020000040000fa
:04003c007803000045
:020000040000fa
:040040007803000041
:020000040000fa
:04004400780300003d
:020000040000fa
:040048001c03000095
:020000040000fa
:04004c007803000035
:020000040000fa
:040050007803000031
:020000040000fa
:04005400780300002d
:020000040000fa
:040058007803000029
:020000040000fa
:04005c00520300004b
:020000040000fa
:040060007803000021
:020000040000fa
:04006400780300001d
:020000040000fa
:040068007803000019
:020000040000fa
:04006c007803000015
:020000040000fa
:040070007803000011
:020000040000fa
:04007400780300000d
:020000040000fa
:040078007803000009
:020000040000fa
:04007c007803000005
:020000040000fa
:040080007803000001
:020000040000fa
:0400840078030000fd
:020000040000fa
:0400880078030000f9
:020000040000fa
:04008c0078030000f5
:020000040000fa
:0400900078030000f1
:020000040000fa
:04009400260300003f
:020000040000fa
:0400980078030000e9
:020000040000fa
:04009c0078030000e5
:020000040000fa
:0400a00078030000e1
:020000040000fa
:0400a40078030000dd
:020000040000fa
:0400a80078030000d9
:020000040000fa
:0400ac0078030000d5
:020000040000fa
:0400b00078030000d1
:020000040000fa
:0400b40078030000cd
:020000040000fa
:0400b80078030000c9
:020000040000fa
:0400bc0078030000c5
:020000040000fa
:0400c00078030000c1
:020000040000fa
:0400c40078030000bd
:020000040000fa
:0400c80078030000b9
:020000040000fa
:0400cc0078030000b5
:020000040000fa
:0400d00078030000b1
:020000040000fa
:0400d40078030000ad
:020000040000fa
:0400d80078030000a9
:020000040000fa
:0400dc0078030000a5
:020000040000fa
:0400e00078030000a1
:020000040000fa
:0400e400780300009d
:020000040000fa
:0400e8007803000099
:020000040000fa
:0400ec007803000095
:020000040000fa
:0400f0007803000091
:020000040000fa
:0400f400780300008d
:020000040000fa
:0400f8007803000089
:020000040000fa
:0400fc007803000085
:020000040000fa
:040100007803000080
:020000040000fa
:04010400780300007c
:020000040000fa
:040108007803000078
:020000040000fa
:04010c007803000074
:020000040000fa
:040110007803000070
:020000040000fa
:04011400780300006c
:020000040000fa
:040118007803000068
:020000040000fa
:04011c007803000064
:020000040000fa
:040120007803000060
:020000040000fa
:04012400780300005c
:020000040000fa
:040128007803000058
:020000040000fa
:04012c007803000054
:020000040000fa
:040130007803000050
:020000040000fa
:04013400780300004c
:020000040000fa
:040138007803000048
:020000040000fa
:04013c007803000044
:020000040000fa
:040140007803000040
:020000040000fa
:04014400780300003c
:020000040000fa
:040148007803000038
:020000040000fa
:04014c007803000034
:020000040000fa
:040150007803000030
:020000040000fa
:04015400780300002c
:020000040000fa
:040158007803000028
:020000040000fa
:04015c007803000024
:020000040000fa
:040160007803000020
:020000040000fa
:04016400780300001c
:020000040000fa
:040168007803000018
:020000040000fa
:04016c007803000014
:020000040000fa
:040170007803000010
:020000040000fa
:04017400780300000c
:020000040000fa
:040178007803000008
:020000040000fa
:04017c007803000004
:020000040000fa
:040180007803000000
:020000040000fa
:0401840078030000fc
:020000040000fa
:0401880078030000f8
:020000040000fa
:04018c0078030000f4
:020000040000fa
:0401900078030000f0
:020000040000fa
:0401940078030000ec
:020000040000fa
:0401980078030000e8
:020000040000fa
:04019c0078030000e4
:020000040000fa
:0401a00078030000e0
:020000040000fa
:0401a40078030000dc
:020000040000fa
:0401a80078030000d8
:020000040000fa
:0401ac0078030000d4
:020000040000fa
:0401b00078030000d0
:020000040000fa
:0401b40078030000cc
:020000040000fa
:0401b80078030000c8
:020000040000fa
:0401bc0078030000c4
:020000040000fa
:0401c00078030000c0
:020000040000fa
:0401c40078030000bc
:020000040000fa
:0401c80078030000b8
:020000040000fa
:0401cc0078030000b4
:020000040000fa
:0401d00078030000b0
:020000040000fa
:0401d40078030000ac
:020000040000fa
:0401d80078030000a8
:020000040000fa
:0401dc0078030000a4
:020000040000fa
:0401e00078030000a0
:020000040000fa
:0401e400780300009c
:020000040000fa
:0401e8007803000098
:020000040000fa
:0401ec007803000094
:020000040000fa
:0401f0007803000090
:020000040000fa
:0401f400780300008c
:020000040000fa
:0401f8007803000088
:020000040000fa
:0401fc007803000084
:020000040000fa
:04020000780300007f
:020000040000fa
:04020400780300007b
:020000040000fa
:040208007803000077
:020000040000fa
:04020c007803000073
:020000040000fa
:04021000780300006f
:020000040000fa
:04021400780300006b
:020000040000fa
:040218007803000067
:020000040000fa
:04021c007803000063
:020000040000fa
:04022000780300005f
:020000040000fa
:04022400780300005b
:020000040000fa
:040228007803000057
:020000040000fa
:04022c007803000053
:020000040000fa
:04023000780300004f
:020000040000fa
:04023400780300004b
:020000040000fa
:040238007803000047
:020000040000fa
:04023c007803000043
:020000040000fa
:04024000780300003f
:020000040000fa
:04024400780300003b
:020000040000fa
:040248007803000037
:020000040000fa
:04024c007803000033
:020000040000fa
:04025000780300002f
:020000040000fa
:04025400780300002b
:020000040000fa
:040258007803000027
:020000040000fa
:04025c007803000023
:020000040000fa
:04026000780300001f
:020000040000fa
:04026400780300001b
:020000040000fa
:100400004f0421000eff27000e01880000000000ad
:10041000000020000000e000020032000001200087
:100420002002880014000700b30007000000e0006d
:1004300003003a00c09a21000100200002003700aa
:100440000000200001002000810f70000100320038
:100450000f000700000020000000e0000200320052
:1004600000000200000000008e0e020000000000ec
:100470000040da000000fe00200020000000e00044
:1004800002003200100020009001880000000600e9
:10049000a1028800800478000000eb001f003700f4
:1004a000e284440054a0b4009905ba00e2844400f8
:1004b00054a0b4009906ba00e284440054a0b400e9
:1004c0000006eb00476fde00fd07b200ae018800ba
:1004d000636ce10003003a000ad801000000eb0061
:1004e0000e003700606ce10008003a00004deb00a0
:1004f0000a05e800020039003420ec000af0a000f0
:100500008b05e900f9ff3e00040037006168e10057
:10051000010032000086eb000b00070019c7ba008b
:100520000e04e0001905ba0003003a000a00e000da
:10053000dbff3a0000000600fe07b200ae028800b2
:100540008a047800f5ff37000cd0a300e20f4d00bd
:100550001c003b0089027800354dba000a05e8000e
:10056000020039003420ec000af0a0008b05e900fd
:100570000f003200254dba000a05e80002003900dc
:100580003420ec000af0a0008b05e90008003200de
:100590000c00e0000600320015cdba000a05e800a4
:1005a000020039003420ec000af0a0008b05e900bd
:1005b0008984e80054a0b4000b00e000e2ff3a0098
:1005c000000006009902ba00055d78008b05e9007d
:1005d000f7ff3200c82ade00055d78008b05e900d0
:1005e000f3ff32000c00e000f1ff320019ddba0029
:1005f000eeff37003600f800809fbe00829fbe00ed
:10060000849fbe00869fbe000000fa000068a9001b
:10061000c6080700c50a0700000000000080fa00b5
:100620004f03be004f02be004f01be004f00be0090
:100630003600f900004006000000fa000108a90099
:10064000000000000080fa00004006003600f800bc
:10065000809fbe00829fbe00849fbe00869fbe001a
:100660000000fa000368a9004080800051808000eb
:1006700061004000e0804800408088005180880090
:1006800055040700000000000080fa004f03be0080
:100690004f02be004f01be004f00be003600f90001
:1006a00000400600801f78000000fa0001a8a900a1
:1006b00000188000d081880010188000e081880038
:1006c00020188000f08188003018800000828800a7
:1006d000401880001082880010c0b30011f0b700ed
:1006e000000000000080fa004f0078000040060083
:1006f0000040da000000fe000000050014002000a9
:10070000ad033700f4ff2f00ab0337000001be003c
:100710003f0007000470a70003f0a1006509b100c5
:10072000160032000d0035006828e1000600350093
:10073000f0ff2f00f1ff27000300e00013003b0053
:1007400001002800000005000000400081804800f2
:100750008502e900fcff3a0008003700f88f4200ec
:1007600002003c008000eb00000005008100d10089
:100770000080d3008502e800fcff3a000300e0009f
:1007800002003b0060001000e0801800000006003e
:100790000001be001e0007000470a70003f0a100c6
:1007a00003f8a30013003a006509b10010003200fd
:1007b000090035006928e100020035000100280029
:1007c0000000050000004000818048008502e9002b
:1007d000fcff3a0000000600f88f420005003500db
:1007e0008100d1000080d3008502e800fcff3a00c0
:1007f000000006008000eb00000005004f89de00cd
:1008000082017800870337006011b8009503370034
:10081000c70ade00f107b200f50fb200080032008f
:10082000e1cf4200020032000170a0002400050068
:10083000810f70000100320004080500440005002b
:10084000810f700002003a00140005008502e900e3
:100850000000400081c04800fcff3b000170a00088
:100860002400050007f82700078361000638e1002f
:1008700004003a00f70720008783610087037100b6
:1008800001003a0003f0a200889fbe008a9fbe00cc
:100890008c9fbe00470ade000480a100c71ade005c
:1008a0000580a1000700280007856000878561009a
:1008b000f70f20000720e1009e0032000728e1002a
:1008c0009c003200010678000400e000b400320011
:1008d000f7072000878060000170a0000500e0009d
:1008e000c0003200f7072000878161000370a0007c
:1008f000050652000f003a000b50e1000b003200d9
:100900000308e10002003a000200e1007e0032002c
:100910000204500083845800040031000001fd00ef
:100920008101fd008402fd008a05fd006044b800dd
:10093000210037000520e10005003d000001fd0019
:100940008101fd008402fd008a05fd0005065200bc
:100950007a60e100050035000170a1004722dd004a
:10096000848070008a807000630037006044b800a3
:10097000ef02660007ff2f00070666000500e00093
:1009800006003400f08312008714dd000511de003c
:10099000071bdd00060171008519de007060e100b3
:1009a000050035000904780082047800030178000e
:1009b0008001eb00700656000b50e10003003a0086
:1009c00002004000838048000400370060041400e7
:1009d000e0841c0002005800838058000188a300b6
:1009e000060032008100d1000080d3008984d3004a
:1009f0000884d3000402e800270037000178a30030
:100a000025003a000100e000030032008186cf009b
:100a1000698656000a0037008c0020000000e000c4
:100a200004003a0009007800880478000004eb0014
:100a3000700252008086cf000d0646000c06e900c9
:100a40007060e10006003500800078000900780041
:100a5000880478000004eb00700656007002520013
:100a60000c00e0000c0034008c08dd00f0031600e0
:100a70000703de00868070000c00dd00074bde00ff
:100a8000060070008c4cdd000743de008684740095
:100a90000c44dd000c0252006120e1002000350012
:100aa000610160000700280087816400f7ff2700cc
:100ab00087836400070374000300e000060032002f
:100ac00082037300040032000000e800e080480068
:100ad0000188a3000e003a00f70f20000720e10074
:100ae0004a003d000170a1004722dd008100720034
:100af0008a8070000000be004f06be004f05be0099
:100b00004f04be00000006006000b800faff370086
:100b10008100d1000080d3000402e800eeff37001e
:100b20000401780089017400a10107008a80700027
:100b3000f1ff3700f7010700070278000001fd0010
:100b40008101fd00f3010700870278008503720030
:100b50000778a300040032000001fd008101fd00c0
:100b600006020700e4ff3700850362000768a30060
:100b7000080032000b50e10003003200f0ff2f00ac
:100b8000f1ff2700dcff37000001fd008101fd00bf
:100b9000d9ff37000468a300d7ff3200faff3700ff
:100ba000f8ff2700888360000b003a000000e00097
:100bb00009003a008303640082837300020032005c
:100bc0000200be00ccff37000b50e100ceff3a0020
:100bd0000200be00c8ff370014002000810064003e
:100be0003eff3700f8ff27008883610004003a00c9
:100bf0000200e00002003a008c007800beff3700df
:100c0000150020008301640039ff370001f8270038
:100c10000000200081007500b7ff3700889fbe00ec
:100c20008a9fbe008c9fbe001b0020000202be00f7
:100c30000586680006002800060666004709de00f3
:100c4000f20fb200820032000243e800800032005e
:100c5000c729de00f30fb2007d0032000343e80035
:100c60007b003200f107b2000170a000f507b2006e
:100c70000570a000c708dd004903de008680700013
:100c80004700dd00c72add004923de0086827200ae
:100c90004722dd00030551000403500085835800fe
:100ca0000300310000004000818048000a05e9008f
:100cb0008c1f78008a9fbe00040050008580580079
:100cc0000402420085824a00000040008180480002
:100cd0000005eb000004be006033b8000406be004f
:100ce0000d48e10056003100110009004dccd8003c
:100cf0000c01b8000d02b8008481410060824a00f6
:100d00008283530003045c0084845c0060055d0002
:100d10000a00e00025003a00800578000d40e1005f
:100d200049003100880078000700780011000900b0
:100d30004d88d8000c01b8000d02b8008481410034
:100d400060824a006003110083835b0004045c003e
:100d5000e0845c000900e00021003a004f01be0081
:100d60000300e0002b003200e3016000070673007f
:100d70008c81710001003200640070004200de00ce
:100d80004e5edd000c007000c258de0001e0a000e5
:100d900083010700cf017800818071004f06be00fb
:100da0004f05be004f04be00000006008c834300c8
:100db0000d044c00e0844c0060054d000000e9008b
:100dc0000a00e000d4ff32008c8343000d044c0085
:100dd000e0844c0060054d000000e900ceff3700c4
:100de0000c0343008d834b0060044c00e0844c00f6
:100df0000000e9000900e000d8ff32000c034300c6
:100e00008d834b0060044c00e0844c000000e9003e
:100e1000d2ff37004200de004e5edd000c007000a5
:100e2000c258de0001e0a000cf0178000300e0001e
:100e3000daff320060001000e0801800d7ff3700b2
:100e4000f0ff2f00aaff3700f0ff2f00b9ff370097
:100e50000404be002f010700870678000004fd008f
:100e60008104fd002b010700078366000678a300bc
:100e7000030032000960a7000800be002c00370004
:100e80000d78a300020032000800be0028003700e1
:100e90000778a30026003a0001f0a10009f0a100a4
:100ea0000668a30003003200f1ff2700f0ff2f00c7
:100eb000baff37000d68a300030032000800be002f
:100ec0008c807000b5ff37000768a30007003a0068
:100ed0000648a30003003200f1ff2700f0ff2f00b7
:100ee000aeff37000d48a300030032006000b800d9
:100ef0008c807000a9ff37000748a300040032006f
:100f000001f82700000020008c807000a3ff37004c
:100f1000760107000004fd008104fd000205780051
:100f2000720107000802be008a01780059ff3700ed
:100f30000160a000120220009280880097ff370015
:100f40000100e000120032000500e0001000320055
:100f5000889fbe008a9fbe008c9fbe000006eb00eb
:100f600001f8a3000300320060001000e0801800c8
:100f70000cf0a00005f8a30003003200600212008c
:100f8000e0821a000cf0a2008005eb0041ff370060
:100f90006000b80002000500038368000700280015
:100fa00007036300470ade000480a100c71ade00c1
:100fb0000580a100f70f20000720e1004200320069
:100fc0000728e10040003200889fbe008a9fbe00d3
:100fd0008c1f7800f107b200f307b2000400e000b4
:100fe000640032000170a0000500e00068003200db
:100ff0000370a00085054200eb07b1000204b800b1
:101000000302b8008484440060854a00020ab800e4
:10101000848444000a854a00030ab8000405450098
:10102000040033000804d0008984d2000a85d2006d
:101030008b05e9006158e1003d00350002102000f9
:10104000090161000308200089816100f707200081
:101050008783640008867300c84cde00c853dd0037
:10106000878474004855de000300e000060032006b
:1010700082037600040032008904e80060054d0018
:101080000a88a3000c003a00f70f20000758e1007f
:1010900044003d000a70a100c75ddd000a857500af
:1010a0008a007300090078004f0678004f05be00e3
:1010b0004f04be00000006000a05d1008984d30059
:1010c0008b05e800f0ff3700881f780006047800e1
:1010d00090000700070278000001fd008101fd007b
:1010e0008c00070087027800850372000778a30050
:1010f000050032000001fd008101fd009f00070096
:101100004f04780000000600850372000748a30022
:1011100003003200f0ff2f00f1ff2700f8ff370037
:101120000000200001f8270088807000f4ff3700dd
:10113000880178004848dd00808171004848de0061
:10114000c850dd0001007000c850de0006047800c1
:101150000b0178001600070088807000d2ff37006e
:101160000500e00005003200170020003a000700eb
:101170009dff370081037000f9ff3a008600780078
:101180004f0678004f05be004f04be00000005006a
:1011900083037100f9ff3200270020002e000700b2
:1011a00094ff370001f8270086807000f4ff3700b5
:1011b0000100e00026003200610111007810e1001a
:1011c00023003c006022b8007010e10004003500ec
:1011d00080027800010078008000eb00700151006f
:1011e0000200e0000900340070031100062add004f
:1011f000822ade008603dd00878272000200de00a4
:10120000860bdd00070070008208de00848171001b
:10121000f4ff27000482620084817100040028002a
:10122000848262006102600005f0a60000000600f2
:1012300004827100070032000000e800e0804800ee
:10124000000006000002be006000b800efff37009b
:101250006000b80000000600889fbe000004eb009c
:101260006138e10016003a000100e00008003a0091
:10127000c800de004800dd00880020000100e0001a
:1012800003003a00c800de004800dd0068044400a6
:101290008184cf00e9845400060034008908dd0011
:1012a000f08314008703de00878070000900dd00f2
:1012b00009044400610214004f04be00000006004f
:1012c0000300e00008003a00c811de004811dd000c
:1012d000880020000300e00003003a00c811de008f
:1012e0004811dd00680444008384cf00e984540081
:1012f000060034008919dd00f08314008713de0036
:10130000878171000911dd0009044400e102140025
:10131000e9ff37002700200001f0a7001700200098
:10132000470bde00f60fb200040032000643e8006f
:101330000a0032004702b3000000060001037800f3
:10134000f607b2000603700002003a000703b3007c
:10135000000006008702b3000000060001037800c9
:10136000f607b20006037000020032000770a0000a
:10137000000006000760a000000006000478a3003b
:10138000040032000578a300030032000168a300c6
:1013900001003a000200be000160a000000006004b
:1013a00081017000270032008002eb0001f8a300e9
:1013b0000300320060001000e080180015002000db
:1013c000f40720000202420020003400f70320004e
:1013d0008703600006042000000363000208200069
:1013e000000161004700de00c909dd0000807100d6
:1013f000c708de000600e000080032008703710025
:10140000060032001000b0000180b0000188a30087
:1014100002003200c108de000402e800f107b20059
:10142000f30f20000320e10003003d004722dd0010
:10143000810072002900370001f827000000eb004e
:10144000260037006000b8000000060068021200a5
:101450007f20e100020034006000b8001f00370068
:101460006011b8007020e1000400350080017800b0
:10147000010078008000eb00700252000400e000e0
:1014800009003400f00312000719dd008419de00a2
:101490000703dd00868171000400de00070bdd001c
:1014a000060070008408de00f7ff270083836300d6
:1014b0008703710006002800030363000700320061
:1014c0000700e00003003a00610160000281730040
:1014d000020032001000b0000180b0000500a6003c
:1014e0000000060001f0a000000006004f0ade0028
:1014f0004709de00f107b200f20fb2000b00320024
:10150000f207b1000170a000c708dd00c901de00cc
:10151000838070004700dd000400a6000000060084
:1015200060001000e080180000000600810f7000cd
:1015300001003a00000006008182cf000500e000b3
:1015400010003e008082cf00ee8242007028e10051
:101550000400390007003e00800078000000eb0026
:101560000e003700708312008600de000500dd00eb
:101570000a003700708352008600dd000000eb0097
:1015800006003700e28252008508dd0070831200f9
:101590000603de00868070000500dd007507b000e0
:1015a0000501ea000400a60000000600600010002b
:1015b000e080180000000600889fbe008a9fbe00e1
:1015c000841f78007c0007004f0078001100330072
:1015d000f0ff2f00838f6c0006003b0004056500c0
:1015e0000a00a7000800370009f0a600100020003c
:1015f00008003700820f5400838f5c00030039001d
:101600001000200001003e000000200009f0a700ab
:101610000000ea004f05be004f04be000000e000dd
:1016200000000600881f7800030478000300e00033
:1016300007003d0060001000e08018006001190004
:10164000e081190002003b0001f02d00030037008b
:101650000400070008f0a70001f0a0004f04780084
:1016600000000600889fbe008a9fbe0000827000b6
:101670000402710004827100260032000004be00e2
:101680000200be006011b8006b0920009502200026
:101690000182cf000a0039000541b1000082cf006d
:1016a000070039000541b1000982cf00040039006c
:1016b0000541b1000882cf00010039000541b100a9
:1016c00005425200120032000a003b008281710084
:1016d000610164008100d1000080d3008984d300bf
:1016e0000884d3008b05e8000442e800f7ff3a00c5
:1016f000070037000804440089844c0000004800bb
:10170000818048008b05e9000442e900f9ff3a00b6
:10171000030007004f05be004f04be000000060096
:1017200081002000618055000b003d000b0020006f
:1017300061fe2f000100e1001d0034008281710074
:10174000610164008904d1000884d3000000e8002e
:10175000faff3a007100200061006400030070008d
:10176000020060000900320061044400e0844c0083
:101770000988a500050032008b05e8006808e10033
:1017800002003a008904d1000884d300f20f20003f
:101790000258e10005003d00c75ddd00f907b20019
:1017a0008980750008007800000006000bf827000b
:1017b0008b007800000005000004be0014fc070048
:1017c0000003be000405be000200be0010fc0700be
:0817d000844f750000000600c3
:020000040000fa
:1017d8000000fa000ed0bf000080fb006100b900d5
:1017e8003201200003002000820f5000838f580030
:1017f80080003e0000060100130037001c0037007f
:10180800250037002f003700300037003900370037
:101818003a00370043003700440037004e003700d5
:101828004f00370059003700720037007100370049
:10183800700037006f003700560037006b00370024
:101848005e003700670037000830ef000a30ef000d
:101858000041eb006000b8004205070012c0b30069
:101868006000b8003f05070010c0b3000ef0b700d5
:101878004280800053808000803e200001002000cc
:10188800800f5100818f59005c00360020c0b300e2
:101898000ef0b700590037000041eb0000002000af
:1018a800011f24002f05070012c0b300000020000c
:1018b800011f24002b05070030c0b3000ef0b7004d
:1018c8004f003700510007004d0037000041eb0082
:1018d80000002000011b24002205070012c0b300ed
:1018e8006000b8001f05070050c0b3000ef0b70035
:1018f8004300370045000700410037000041eb0076
:101908006000b8001705070012c0b30000002000ef
:10191800011b24001305070070c0b3000ef0b700c8
:101928003700370039000700350037000041eb0069
:1019380000002000811924000a05070012c0b30026
:101948000000200081192c000605070090c0b30094
:101958000ef0b7002a0037002c00070028003700d7
:101968000041eb000000200081192c00fd04070055
:1019780012c0b3000000200081192400f9040700f8
:10198800b0c0b3000ef0b7001d0037001f000700fd
:101998001b0037000041eb006000b800f1040700ad
:1019a80012c0b3000000200081192400ed040700d4
:1019b80010c1b3000ef0b7001100370012c0b30019
:1019c8006000b800e70407000041eb0000002000b9
:1019d80081192400e304070030c1b3000ef0b700fa
:1019e8000700370009000700050037000700070057
:1019f800030037000e70ef00010037000000000000
:101a0800000000000080fa00000006000200fa0052
:101a18000040eb00004f780090818000a181800099
:101a2800020020008324240032fb07000000e000ad
:101a380011003d00308180004181800002002000bb
:101a4800832424002dfb07000000e0000a00340076
:101a580050818000618180000200200083242400de
:101a680026fb07000000e0000300340040c0b3007c
:101a7800004f780077003700b0818000c181800076
:101a880002002000832424001afb07000000e00065
:101a980011003d00708180008181800002002000db
:101aa8008324240015fb07000000e0000a0034002e
:101ab800508180006181800002002000832424007e
:101ac8000efb07000000e0000300340050c0b30024
:101ad800004f78005f00370030818000418180002e
:101ae800020020008324240002fb07000000e0001d
:101af80011003d00508180006181800002002000bb
:101b080083242400fdfa07000000e0000a003400e6
:101b180070818000818180000200200083242400dd
:101b2800f6fa07000000e0000300340020c0b3000c
:101b3800004f7800470037003081800041818000e5
:101b48000200200083242400ecfa07000000e000d3
:101b58001100340050818000618180000200200063
:101b680083242400e5fa07000000e0000a0034009e
:101b7800708180008181800002002000832424007d
:101b8800dcfa07000000e00003003d0010c0b300cd
:101b9800004f78002f00370050818000618180005d
:101ba8000200200003222400d2fa07000000e0000f
:101bb80003003d0030c0b300004f78002500370017
:101bc80030818000418180000200200083242400ad
:101bd800cafa07000000e0001e00340050818000af
:101be800618180000200200083242400c3fa0700da
:101bf8000000e000170034007081800081818000bf
:101c08000200200083242400bcfa07000000e00042
:101c180010003400b0818000c181800002002000e3
:101c280083242400b5fa07000000e000090034000e
:101c380090818000a181800002002000832424007c
:101c4800aefa07000000e000020034000040eb009c
:101c5800004f78001e4078000004e00003003a00be
:101c680020c0b3000ff0b7001d0037001e407800f9
:101c7800e24f500003003a0040c0b3000ff0b70035
:101c8800170037001e407800e14f500003003a006b
:101c980060c0b3000ff0b700110037001e40780095
:101ca800e34f500003003a0080c0b3000ff0b700c4
:101cb8000b0037001e407800e44f500003003a0044
:101cc80020c1b3000ff0b700050037001e407800b0
:101cd800e54f500002003a0000c1b3000ff0b70012
:101ce8000fd0bf000080fb00e10021009140780088
:101cf8008180fb008100e900810f50000200320062
:101d08000fd0bf000ef0b700000000000080fa00fe
:101d1800000006000800fa00889fbe0013050700af
:101d28006005070084cea80084aea800848ea800b1
:101d3800856ea800754ea800040ea900052ea900fe
:101d480095eea900054ea900746ea9003c01070094
:101d58004701070061010700d6020700b404070025
:101d680095eea800060037000041eb006000b800bf
:101d7800fc03070012c0b3006000b800f9030700b5
:101d8800907380000000d100614060000004e00012
:101d9800f5ff320095eea9000830ef000a30ef0099
:101da800e0040700e8040700e14f5000d3003a00c0
:101db800e9040700e0040700000f78001e80e8002f
:101dc800100078008000eb008dfa07003233230002
:101dd800330524006efc070000017800010078003c
:101de80082027800000278000200200003582400d4
:101df80005007800840078000000be0085fb07001d
:101e080010079800210798001e019000ae0190006d
:101e180000002000812024007efb070000017800dc
:101e28000100780082027800000278000200200099
:101e3800030a240005007800840078000000be0032
:101e480086fa070080017800010178000300780015
:101e5800820078000000be007081880081818800bf
:101e6800410020001e804000100078008000eb0038
:101e780063fa0700323323003305240044fc0700cb
:101e880000017800010078008202780000027800e2
:101e98000200200003582400050078008400780020
:101ea8000000be005bfb07001007980021079800a0
:101eb8001e019000ae019000000020008120240047
:101ec80054fb0700000178000100780082027800c6
:101ed8000002780002002000030a240005007800b0
:101ee800840078000000be005cfa070080017800da
:101ef8000101780003007800820078000000be002d
:101f08005081880061818800610020001e804000a7
:101f1800100078008000eb0039fa07003233230004
:101f2800330524001afc070000017800010078003e
:101f38008202780000027800020020000358240082
:101f480005007800840078000000be0031fb07001f
:101f580010079800210798001e019000ae0190001c
:101f680000002000812024002afb070000017800df
:101f78000100780082027800000278000200200048
:101f8800030a240005007800840078000000be00e1
:101f980032fa070080017800010178000300780018
:101fa800820078000000be003081880041818800ee
:101fb8001e007800100078008000eb0010fa07007f
:101fc8003233230033052400f1fb070000017800b9
:101fd80001007800820278000002780002002000e8
:101fe8000358240005007800840078000000be0033
:101ff80008fb070010079800210798001e019000b1
:10200800ae019000000020008120240001fb0700a1
:102018000001780001007800820278000002780050
:1020280002002000030a24000500780084007800dc
:102038000000be0009fa070080017800010178005d
:1020480003007800820078000000be00b08188009c
:10205800c1818800810020001e80400010007800a7
:102068008000eb00e6f90700323323003305240033
:10207800c7fb0700000178000100780082027800a1
:1020880000027800020020000358240005007800b0
:10209800840078000000be00defa070010079800f0
:1020a800210798001e019000ae019000000020005a
:1020b80081202400d7fa0700000178000100780089
:1020c800820278000002780002002000030a24003f
:1020d80005007800840078000000be00dff90700e2
:1020e8008001780001017800030078008200780000
:1020f8000000be0090818800a1818800e0012000d6
:102108003007980078818000898180003e00900027
:102118006100b900b7f907000001be000800be0061
:1021280076f907000000e0000200340084aea80041
:102138000100370084aea9005881800069818000c1
:102148003e0090006100b900aaf907000001be0036
:102158000800be0069f907000000e0000200340032
:10216800848ea80001003700848ea9003881800081
:10217800498180003e0090006100b9009df9070088
:102188000001be000800be005cf907000000e00086
:1021980002003400856ea80001003700856ea90092
:1021a800b8818000c98180003e0090006100b900bc
:1021b80090f907000001be000800be004ff90700b3
:1021c8000000e0000200340084cea80001003700bf
:1021d80084cea90098818000a98180003e009000eb
:1021e8006100b90083f907000001be000800be00c5
:1021f80042f907000000e00002003400754ea80014
:1022080001003700754ea90000fe070042808000db
:102218005380800000a62e0001002000800f51008e
:10222800818f590001003e00defe370000000000eb
:102238000000eb004f04be000080fa00000006001a
:102248000000fa0005e1a9000421a9000068a9001e
:102258002068a80005e1a80000002000a14724008c
:102268002a000700000000000080fa0000000600b5
:102278000000fa0013e1a90011e1a9001061a8000b
:102288001021a900800880000040a0000050a10093
:102298008008880080702000500888000621ef0020
:1022a8003039200070088800007028006008880015
:1022b800204280000000a0000010a1000020a10022
:1022c800204288000108a9002108a80011e1a800ff
:1022d800000000000080fa00000006000000fa007c
:1022e8001fe1a9001e21a9000368a9002368a8000e
:1022f8001fe1a80000002000a1472400b800070043
:10230800000000000080fa00000006000400fa0047
:10231800008fbe00200880000040a1000050a100ee
:10232800200888001e0178009e019000001c2e00e5
:1023380041c6240037fa0700000178000100780040
:10234800820278000002780002f02f00f377240060
:1023580005007800840078000000be00e7f8070058
:102368000000e0008d003400200880000040a0003c
:102378000050a100200888001e0178009e019000ee
:10238800001c2e0041c6240022fa07000001780034
:102398000100780082027800000278000200200024
:1023a8000310240005007800840078000000be00b7
:1023b80018fa07000001780001007800820278000e
:1023c8000002780002f02f00f3772400050078005f
:1023d800840078000000be00c8f807000000e00094
:1023e80055003400200880000040a1000050a000e3
:1023f800200888001e0178009e019000001c2e0015
:1024080041c6240003fa07000001780001007800a3
:1024180082027800000278000200200003282400cd
:1024280005007800840078000000be00f9f9070074
:10243800000178000100780082027800000278002c
:1024480002f02f00f377240005007800840078005c
:102458000000be00a9f807000000e0001d003400dd
:10246800200880000040a0000050a000200888003c
:102478001e0178009e019000001c2e0041c6240019
:10248800e4f9070000017800010078008202780072
:1024980000027800020020000338240005007800bc
:1024a800840078000000be00daf907000001780017
:1024b80001007800820178000001780003007800ac
:1024c800820078000000be008ef80700100888001f
:1024d800400037001e0178009e019000001c2e006d
:1024e80041c62400cbf907000001780001007800fc
:1024f80082027800000278000200200003282400ed
:1025080005007800840078000000be00c1f90700cb
:10251800000178000100780082017800000178004d
:1025280003007800820078000000be0075f80700fc
:1025380010088800270037001e0178009e019000cf
:10254800001c2e0041c62400b2f9070000017800e3
:102558000100780082027800000278000200200062
:102568000310240005007800840078000000be00f5
:10257800a8f90700000178000100780082017800be
:102588000001780003007800820078000000be0097
:102598005cf80700100888000e0037001e0178005c
:1025a8009e019000001c2e0041c6240099f90700e6
:1025b80000017800010078008201780000017800ad
:1025c80003007800820078000000be004df8070084
:1025d80010088800000000000080fa0000000600d3
:1025e8000400fa00008fbe00f00880000040a1003f
:1025f8000050a100f00888001e0178009e0190009c
:10260800001c2e0041c6240082f907000001780052
:1026180001007800820278000002780002f02f00a2
:10262800f377240005007800840078000000be00dd
:1026380032f807000000e0008d003400f008800048
:102648000040a0000050a100f00888001e0178009a
:102658009e019000001c2e0041c624006df9070061
:1026680000017800010078008202780000027800fa
:102678000200200003102400050078008400780080
:102688000000be0063f9070000017800010078002f
:10269800820278000002780002f02f00f37724000d
:1026a80005007800840078000000be0013f80700d9
:1026b8000000e00055003400f00880000040a10050
:1026c8000050a000f00888001e0178009e019000cc
:1026d800001c2e0041c624004ef9070000017800b6
:1026e80001007800820278000002780002002000d1
:1026f8000328240005007800840078000000be004c
:1027080044f907000001780001007800820278008f
:102718000002780002f02f00f3772400050078000b
:10272800840078000000be00f4f707000000e00015
:102738001d003400f00880000040a0000050a000f8
:10274800f00888001e0178009e019000001c2e00f1
:1027580041c624002ff90700000178000100780025
:10276800820278000002780002002000033824006a
:1027780005007800840078000000be0025f90700f5
:1027880000017800010078008201780000017800db
:1027980003007800820078000000be00d9f7070027
:1027a800d0088800400037001e0178009e01900084
:1027b800001c2e0041c6240016f90700000178000d
:1027c80001007800820278000002780002002000f0
:1027d8000328240005007800840078000000be006b
:1027e8000cf90700000178000100780082017800e8
:1027f8000001780003007800820078000000be0025
:10280800c0f70700d0088800270037001e017800ad
:102818009e019000001c2e0041c62400fdf8070010
:102828000001780001007800820278000002780038
:1028380002002000031024000500780084007800be
:102848000000be00f3f807000001780001007800de
:102858008201780000017800030078008200780087
:102868000000be00a7f70700d00888000e00370058
:102878001e0178009e019000001c2e0041c6240015
:10288800e4f8070000017800010078008201780070
:102898000001780003007800820078000000be0084
:1028a80098f70700d0088800000000000080fa00b0
:1028b800000006000000fa0002ccbf000000a100e2
:1028c8000010a1000020a10002ecb7000096200033
:1028d800206088001061800000a0a00000b0a00067
:1028e8001061880023cca80023eca8003000200049
:1028f800206188001062800000a0a00000b0a00045
:102908001062880043cca80043eca80030002000e7
:102918002062880001eca800000000000080fa0096
:10292800000006000000fa00889fbe008a9fbe00d3
:10293800d4808000e5808000b0808000c180800065
:102948000001be000400be006af707000000e000b6
:1029580014003d00b8808000c9808000d4808000c9
:10296800e580800020808000318080000001be006a
:102978000400be00c2f707000001780001007800db
:1029880082027800000278000801be000500780085
:10299800840078000000be0034010700d080880061
:1029a800e1808800d4808000e5808000b0808000cd
:1029b800c18080000001be000400be004ff7070080
:1029c8000000e0001c003400b8808000c98080004e
:1029d800da808000eb8080002080800031808000d9
:1029e8000001be00a6f7070000017800010078008a
:1029f80082017800000178000300780082007800e6
:102a08000001be000a00be0094f70700000178002c
:102a18000100780082027800000278000801be00f8
:102a280005007800840078000000be00f800070068
:102a3800d0808800e1808800d0808000e18080001c
:102a48006011b8002df707000000e0001e003500f7
:102a5800d0808000e180800002002000031c240058
:102a68004bf9070000017800010078008202780025
:102a78000002780000808000118080000001be0004
:102a880005007800840078000000be007cf707008d
:102a980000017800010078008201780000017800c8
:102aa80003007800820078000000be0036f70700b7
:102ab80030618800008080001180800032f70700b4
:102ac800706188001e00370000808000118080003f
:102ad8002df7070030618800d0808000e1808000f9
:102ae80001f0a20002002000031c240028f90700be
:102af8000001780001007800820278000002780066
:102b080000808000118080000001be000500780070
:102b1800840078000000be0059f707000001780023
:102b28000100780082017800000178000300780035
:102b3800820078000000be0013f70700706188006b
:102b48001481800025818000f08080000181800050
:102b58000001be000400be00e6f607000000e00029
:102b680014003d00f88080000981800014818000f5
:102b78002581800020808000318080000001be0017
:102b88000400be003ef7070000017800010078004d
:102b980082027800000278000801be000500780073
:102ba800840078000000be00b00007001081880093
:102bb800218188001481800025818000f0808000b8
:102bc800018180000001be000400be00cbf60700b2
:102bd8000000e0001c003400f880800009818000bb
:102be8001a8180002b818000208080003180800045
:102bf8000001be0022f707000001780001007800fc
:102c080082017800000178000300780082007800d3
:102c18000001be000a00be0010f70700000178009e
:102c28000100780082027800000278000801be00e6
:102c380005007800840078000000be0074000700da
:102c48001081880021818800108180002181800006
:102c58006011b800a9f607000000e0001e0035006a
:102c6800108180002181800002002000031c2400c4
:102c7800c7f8070000017800010078008202780098
:102c88000002780000808000118080000001be00f2
:102c980005007800840078000000be00f8f6070000
:102ca80000017800010078008201780000017800b6
:102cb80003007800820078000000be00b2f607002a
:102cc800306288000080800011808000aef6070026
:102cd800706288001e00370000808000118080002c
:102ce800a9f60700306288001081800021818000e9
:102cf80001f0a20002002000031c2400a4f8070031
:102d08000001780001007800820278000002780053
:102d180000808000118080000001be00050078005e
:102d2800840078000000be00d5f607000001780096
:102d38000100780082017800000178000300780023
:102d4800820078000000be008ff6070070628800dd
:102d5800000000004f05be004f04be000080fa00ce
:102d6800000006000600fa00008fbe0042479800e7
:102d78004e409000e14f500005003a001e017800d7
:102d88009e019000b2808800c38088000800370048
:102d98004e4090000004e00005003a001e00780054
:102da8009e00900001f0a200f08088000181880058
:102db800000000000080fa00000006000400fa008d
:102dc800008fbe006011b8001e0078009e009000c1
:102dd8004af607000000e000030035001e007800f6
:102de8009e009000030037001e0078009e009000af
:102df80001f0a2008001780001017800030078004a
:102e0800820078000000be000080fa000000060082
:102e18000800fa00008fbe002207980033079800c8
:102e28002e019000be0190001e0078009e009000c8
:102e380032f607000000e000030034009e0078002e
:102e48001e00900002003700ae0090003e00900087
:102e58008101780000017800030078008200780082
:102e68000000be000080fa00000006000800fa001a
:102e7800008fbe0022079800330798002e019000ab
:102e8800be0190001e0078009e00900019f6070011
:102e98000000e00003003d009e0078001e00900046
:102ea80002003700ae0090003e00900081017800db
:102eb8000001780003007800820078000000be005e
:102ec8000080fa00000006000c00fa00008fbe0027
:102ed8002207980033079800440798005507980080
:102ee8004e019000de0190001e0078009e009000c8
:102ef80002f607000000e000040034004e019000d4
:102f0800de019000028fbe000a0037002e019000fb
:102f1800be0190001e0078009e009000f5f50700a5
:102f28000000e00003003d002e019000be0190006b
:102f3800028fbe009e0078001e009000810178007c
:102f48000001780003007800820078000000be00cd
:102f58000080fa00000006000400fa00008fbe009e
:102f6800b2fd2000930424001e0078009e0090000b
:102f780028f7070000017800010078008202780035
:102f88000002780002002000433324000500780086
:102f9800840078000000be00fdf7070000017800fb
:102fa8000100780082007800810178000001780033
:102fb80003007800820078000000be000080fa005c
:102fc800000006000400fa00008fbe00b2fd2000d9
:102fd800930424001e0078009e009000ecf7070080
:102fe8000001780001007800820278000002780071
:102ff8000200200043332400050078008400780094
:103008000000be0003f70700000178000100780007
:1030180082007800810178000001780003007800c0
:10302800820078000000be000080fa000000060060
:103038000000fa0021e3a9002143a800001980003c
:103048000080a1000090a100001988002043a90079
:10305800001980000050a0000060a0000070a000cf
:10306800001988001019800000d0a10000e0a1001c
:1030780000f0a100101988002343a800101980004f
:103088000080a1000090a10010198800111980008b
:1030980030f82f00008060000040a0001019880060
:1030a8002203a9002223a90025e3a900f0c0b30048
:1030b80024e3b70021198000f00f2e008080600003
:1030c80000f0200001007000201988003303a900d7
:1030d8001e0ea8001f0ea8001f2ea8001f4ea80035
:1030e8001f6ea8003003a8003103a8003123a800f0
:1030f8003143a8003163a8004119800000fe2f0069
:10310800008060004019880028e3a90001a8a900f0
:1031180021a8a80021e3a800000000000080fa0010
:10312800000006000000fa002023a80000000000ac
:103138000080fa00000006000000fa00a003210049
:103148000080fa00000006000000fa0011d0bf005d
:103158000080fa00000006000000fa001170ef007d
:10316800000000000080fa00000006000000fa00dd
:10317800817420009140780000ccb30000c060004a
:103188007041b30048e7b700313a800000e02f00f3
:10319800808060008005200001007000303a8800bf
:1031a800203a80000060a1000070a100203a880049
:1031b800213a800000fe2f00008060000000a0007f
:1031c800203a880012c0b30080c7b300a1c9b30079
:1031d800337420008049780081497800824978005a
:1031e800103a800000407800004178000204a000f6
:1031f80060c4b30071c5b30023742000804978000f
:10320800814978008249780000000000103a800067
:103218004c00de0067406000e14f5000fbff3a00c1
:103228005927a800c03a80000000a0000010a100a3
:103238000020a100c03a88005ac7bf000000a000c3
:103248000010a0000020a0005ae7b700c03a800094
:103258000050a1000060a0000070a000c03a8800e3
:1032680059a7a80059e7a80000000000c03a80004c
:103278004e00de0061406000e14f5000fbff3a0065
:1032880000000000103a80004500de006140600048
:10329800e14f5000fbff3a00000000000080fa00f8
:1032a800000006000000fa000e2eef001e2eef00b0
:1032b8003e2eef002e2eef004e2eef006e2eef006a
:1032c80080cea90080aea900808ea900816ea900d9
:1032d800714ea900706ea900014ea900012ea90027
:1032e800000ea90091eea900702ea8000e0007009c
:1032f80003000700000000000080fa00000006003c
:103308000000fa00217420006204200073052000e8
:10331800824878008348780042c7a800000000006f
:103328000080fa00000006000000fa002174200066
:1033380062042000730520008248780083487800e2
:1033480042c7a900000000000080fa000000060043
:020000040000fa
:103358000e100000020000008000000008100000ad
:103368000600000080000000141000002600000085
:10337800800000000010000008000000820000002b
:103388000000480042000000a04000003a10000081
:103398000a00000080000000101000000200000079
:1033a80080000000121000000200000080000000f1
:0433b8000000000011
:020000040000fa
:0200000401f009
:04000800cfffff0027
:020000040000fa
:0200000401f009
:04000c00f9ffff00f9
:020000040000fa
:0200000401f009
:040010005bffff0093
:020000040000fa
:0200000401f009
:040014007fffff006b
:020000040000fa
:0200000401f009
:04001800cfffff0017
:020000040000fa
:0200000401f009
:04001c00deffff0004
:020000040000fa
:0200000401f009
:04002000cfffff000f
:00000001FF
